:100000000C9434000C943E000C943E000C943E0082
:100010000C943E000C943E000C943E000C943E0068
:100020000C943E000C943E000C943E000C943E0058
:100030000C943E000C943E000C943E000C943E0048
:100040000C943E000C943E000C943E000C943E0038
:100050000C943E000C943E000C943E000C943E0028
:100060000C943E000C943E0011241FBECFEFD8E04C
:10007000DEBFCDBF0E9440000C9482000C940000B3
:10008000CF93DF93CDB7DEB72A970FB6F894DEBFD4
:100090000FBECDBF88E3898384E68A8388E79CEE20
:1000A0009C838B8380ED97E09E838D8380E896E927
:1000B000AFEFBFEF8F839887A987BA871F82188613
:1000C00019861A8629813A812303C00111249C8351
:1000D0008B8389818F5F89838D819E8101969E8329
:1000E0008D838B819C8101969C838B838F819885E6
:1000F000A985BA850196A11DB11D8F839887A9870F
:08010000BA87FFCFF894FFCF8E
:00000001FF
