S01E00004C61625F696E74656772657274655F6B7265747365722E7372656300
S11300000C9438000C9442000C9442000C9442006E
S11300100C9442000C9442000C9442000C94420054
S11300200C9442000C9442000C9442000C94420044
S11300300C9442000C9442000C9442000C94420034
S11300400C9442000C9442000C9442000C94420024
S11300500C9442000C9442000C9442000C94420014
S11300600C9442000C9442000C9442000C94420004
S113007011241FBECFEFD4E0DEBFCDBF0E945000DD
S11300800C9458000C94000010BC8FE189B988E1ED
S11300908AB98EE880BD08955D9BFECF8CB9089522
S11300A08FEF8ABB0E94440081E40E944C00FCCF85
S10700B0F894FFCFEE
S9030000FC
