S01E00004C61625F696E74656772657274655F6B7265747365722E7372656300
S11300000C9438000C9442000C9442000C9442006E
S11300100C9442000C9442000C9442000C94420054
S11300200C9442000C9442000C9442000C94420044
S11300300C9442000C9442000C9442000C94420034
S11300400C9442000C9442000C9442000C94420024
S11300500C9442000C9442000C9442000C94420014
S11300600C9442000C9442000C9442000C94420004
S113007011241FBECFEFD4E0DEBFCDBF0E945600D7
S11300800C946E000C94000010BC8FE189B988E1D7
S11300908AB98EE880BD08955D9BFECF8CB9089522
S11300A05F9B02C08CB1089580E008958FEF8ABBF6
S11300B00E9444000E945000C82F8823D9F30E9454
S11300C04C008C2F0E944C008C2F0E944C008C2FD3
S11300D00E944C008C2F0E944C00ECCFF894FFCF70
S9030000FC
