:100000000C9438000C9442000C9442000C94420072
:100010000C9442000C9442000C9442000C94420058
:100020000C9442000C9442000C9442000C94420048
:100030000C9442000C9442000C9442000C94420038
:100040000C9442000C9442000C9442000C94420028
:100050000C9442000C9442000C9442000C94420018
:100060000C9442000C9442000C9442000C94420008
:1000700011241FBECFEFD4E0DEBFCDBF0E945800D9
:100080000C9465000C94000090BD89B988E18AB990
:100090008EE880BD08959C015D9BFECF9AB19E7F46
:1000A0009AB930FF03C08AB181608AB92CB908952A
:1000B0008FEF8ABB6FE170E080E090E00E94440027
:0E00C00082E490E00E944B00FBCFF894FFCF4B
:00000001FF
